:020000040800F2
:10000000008001201D270008B9240008BF24000833
:10001000C5240008CB240008D124000800000000FB
:10002000000000000000000000000000D7240008CD
:10003000E524000800000000F32400080125000862
:100040006D2700086D2700086D2700086D27000840
:100050006D2700086D2700086D2700086D27000830
:100060006D2700086D2700086D2700086D27000820
:100070006D2700086D2700086D2700086D27000810
:100080006D2700086D2700080D25000800000000FE
:100090000000000000000000000000002125000812
:1000A0006D270008452500086D2700086D2700080A
:1000B0006D2700086D2700086D2700086D270008D0
:1000C0006D2700086D2700086D2700086D270008C0
:1000D0006D2700086D2700086D270008000000004C
:1000E0006D2700086D2700086D270008000000003C
:1000F0000000000000000000000000006D27000864
:10010000000000006D270008592500086D27000831
:1001100000000000000000000000000000000000DF
:100120006D2700086D2700086D2700086D2700085F
:100130006D27000800000000000000000000000023
:100140000000000000000000000000006D27000813
:100150006D2700086D2700086D2700086D2700082F
:100160006D2700086D270008000000000000000057
:10017000000000000000000000000000000000007F
:10018000000000006D2700080000000000000000D3
:040190006D270008CF
:1001A00010B5054C237833B9044B13B10448AFF3B1
:1001B00000800123237010BD80000020000000009B
:1001C000B87F000808B5034B1BB103490348AFF3E0
:1001D000008008BD0000000084000020B87F0008F7
:1001E00010F8012B11F8013B012A28BF9A42F7D0E1
:1001F000D01A7047034613F8012B002AFBD1181AB6
:1002000001387047000000000000000000000000FE
:1002100001F0FF01102A2BDB10F0070F08D010F8B7
:10022000013B013A8B422DD010F0070F42B3F6D1BB
:10023000F0B441EA012141EA014122F007047FF0D4
:1002400000070023F0E80256083C85EA010586EA2B
:10025000010685FA47F5A3FA87F586FA47F6A5FA67
:1002600087F68EB9EED1F0BC01F0FF0102F0070273
:1002700032B110F8013B013A83EA010313B1F8D11E
:100280000020704701387047002D06BF35460338FF
:10029000073815F0010F07D1013015F4807F02BF38
:1002A000013015F4C03F0130F0BC0138704700BF89
:1002B00081F0004102E000BF83F0004330B54FEA17
:1002C00041044FEA430594EA050F08BF90EA020F84
:1002D0001FBF54EA000C55EA020C7FEA645C7FEA17
:1002E000655C00F0E2804FEA5454D4EB5555B8BF3A
:1002F0006D420CDD2C4480EA020281EA030382EAAB
:10030000000083EA010180EA020281EA0303362D3C
:1003100088BF30BD11F0004F4FEA01314FF4801C0F
:100320004CEA113102D0404261EB410113F0004F21
:100330004FEA03334CEA133302D0524263EB4303D8
:1003400094EA050F00F0A780A4F10104D5F1200E76
:100350000DDB02FA0EFC22FA05F2801841F10001D1
:1003600003FA0EF2801843FA05F359410EE0A5F1A5
:1003700020050EF1200E012A03FA0EFC28BF4CF0D6
:10038000020C43FA05F3C01851EBE37101F000458C
:1003900007D54FF0000EDCF1000C7EEB00006EEB99
:1003A0000101B1F5801F1BD3B1F5001F0CD3490823
:1003B0005FEA30004FEA3C0C04F101044FEA44527A
:1003C00012F5800F80F09A80BCF1004F08BF5FEA01
:1003D000500C50F1000041EB045141EA050130BDE1
:1003E0005FEA4C0C404141EB0101013C28BFB1F5F3
:1003F000801FE9D291F0000F04BF01460020B1FA3E
:1004000081F308BF2033A3F10B03B3F120020CDA10
:100410000C3208DD02F1140CC2F10C0201FA0CF0EE
:1004200021FA02F10CE002F11402D8BFC2F1200C53
:1004300001FA02F120FA0CFCDCBF41EA0C01904009
:10044000E41AA2BF01EB0451294330BD6FEA040452
:100450001F3C1CDA0C340EDC04F11404C4F120023D
:1004600020FA04F001FA02F340EA030021FA04F34F
:1004700045EA030130BDC4F10C04C4F1200220FAA6
:1004800002F001FA04F340EA0300294630BD21FAE4
:1004900004F0294630BD94F0000F83F4801306BFAA
:1004A00081F480110134013D4EE77FEA645C18BF9E
:1004B0007FEA655C29D094EA050F08BF90EA020F35
:1004C00005D054EA000C04BF1946104630BD91EA2D
:1004D000030F1EBF0021002030BD5FEA545C05D130
:1004E0004000494128BF41F0004130BD14F580046F
:1004F0003CBF01F5801130BD01F0004545F0FE41E3
:1005000041F470014FF0000030BD7FEA645C1ABF17
:10051000194610467FEA655C1CBF0B46024650EA4E
:10052000013406BF52EA033591EA030F41F400217A
:1005300030BD00BF90F0000F04BF0021704730B500
:100540004FF4806404F132044FF000054FF00001D5
:1005500050E700BF90F0000F04BF0021704730B596
:100560004FF4806404F1320410F0004548BF40426B
:100570004FF000013EE700BF42004FEAE2014FEAC0
:1005800031014FEA02701FBF12F07F4393F07F4F9B
:1005900081F06051704732F07F4208BF704793F09E
:1005A0007F4F04BF41F40021704730B54FF46074B1
:1005B00001F0004521F000411CE700BF50EA0102B4
:1005C00008BF704730B54FF000050AE050EA01025D
:1005D00008BF704730B511F0004502D5404261EBCD
:1005E00041014FF4806404F132045FEA915C3FF40E
:1005F000D8AE4FF003025FEADC0C18BF03325FEAAB
:10060000DC0C18BF033202EBDC02C2F1200300FA5B
:1006100003FC20FA02F001FA03FE40EA0E0021FA80
:1006200002F11444BDE600BF70B54FF0FF0C4CF46E
:10063000E06C1CEA11541DBF1CEA135594EA0C0F20
:1006400095EA0C0F00F0DEF82C4481EA030621EA5B
:100650004C5123EA4C5350EA013518BF52EA033596
:1006600041F4801143F4801338D0A0FB02CE4FF048
:100670000005E1FB02E506F00042E0FB03E54FF078
:100680000006E1FB03569CF0000F18BF4EF0010E70
:10069000A4F1FF04B6F5007F64F5407404D25FEA6C
:1006A0004E0E6D4146EB060642EAC62141EA55511F
:1006B0004FEAC52040EA5E504FEACE2EB4F1FD0C61
:1006C00088BFBCF5E06F1ED8BEF1004F08BF5FEADF
:1006D000500E50F1000041EB045170BD06F0004691
:1006E00046EA010140EA020081EA0301B4EB5C043E
:1006F000C2BFD4EB0C0541EA045170BD41F4801136
:100700004FF0000E013C00F3AB8014F1360FDEBF5A
:10071000002001F0004170BDC4F10004203C35DA36
:100720000C341BDC04F11404C4F1200500FA05F3B9
:1007300020FA04F001FA05F240EA020001F000425A
:1007400021F0004110EBD37021FA04F642EB0601D0
:100750005EEA430E08BF20EAD37070BDC4F10C04FA
:10076000C4F1200500FA04F320FA05F001FA04F2BE
:1007700040EA020001F0004110EBD37041F10001AA
:100780005EEA430E08BF20EAD37070BDC4F12005B5
:1007900000FA05F24EEA020E20FA04F301FA05F21D
:1007A00043EA020321FA04F001F0004121FA04F2C5
:1007B00020EA020000EBD3705EEA430E08BF20EA95
:1007C000D37070BD94F0000F0FD101F000464000CF
:1007D00041EB010111F4801F08BF013CF7D041EA51
:1007E000060195F0000F18BF704703F00046520055
:1007F00043EB030313F4801F08BF013DF7D043EA26
:100800000603704794EA0C0F0CEA135518BF95EADB
:100810000C0F0CD050EA410618BF52EA4306D1D162
:1008200081EA030101F000414FF0000070BD50EA81
:10083000410606BF1046194652EA430619D094EA0B
:100840000C0F02D150EA013613D195EA0C0F05D1F5
:1008500052EA03361CBF104619460AD181EA030149
:1008600001F0004141F0FE4141F470014FF0000001
:1008700070BD41F0FE4141F4780170BD70B54FF09C
:10088000FF0C4CF4E06C1CEA11541DBF1CEA13551C
:1008900094EA0C0F95EA0C0F00F0A7F8A4EB0504FE
:1008A00081EA030E52EA03354FEA013100F08880F5
:1008B0004FEA03334FF0805545EA131343EA1263BE
:1008C0004FEA022245EA111545EA10654FEA002673
:1008D0000EF000419D4208BF964244F1FD0404F52C
:1008E000407402D25B084FEA3202B61A65EB030588
:1008F0005B084FEA32024FF480104FF4002CB6EB45
:10090000020E75EB030E22BFB61A754640EA0C00C4
:100910005B084FEA3202B6EB020E75EB030E22BF04
:10092000B61A754640EA5C005B084FEA3202B6EB45
:10093000020E75EB030E22BFB61A754640EA9C0004
:100940005B084FEA3202B6EB020E75EB030E22BFD4
:10095000B61A754640EADC0055EA060E18D04FEA92
:10096000051545EA16754FEA06164FEAC30343EA32
:1009700052734FEAC2025FEA1C1CC0D111F4801FFF
:100980000BD141EA00014FF000004FF0004CB6E7F8
:1009900011F4801F04BF01430020B4F1FD0C88BF97
:1009A000BCF5E06F3FF6AFAEB5EB030C04BFB6EBA2
:1009B000020C5FEA500C50F1000041EB045170BD95
:1009C0000EF0004E4EEA113114EB5C04C2BFD4EBC2
:1009D0000C0541EA045170BD41F480114FF0000E46
:1009E000013C90E645EA060E8DE60CEA135594EAC2
:1009F0000C0F08BF95EA0C0F3FF43BAF94EA0C0FC5
:100A00000AD150EA01347FF434AF95EA0C0F7FF439
:100A100025AF104619462CE795EA0C0F06D152EA8D
:100A200003353FF4FDAE1046194622E750EA410671
:100A300018BF52EA43067FF4C5AE50EA41047FF482
:100A40000DAF52EA43057FF4EBAE12E74FF0FF3CE7
:100A500006E000BF4FF0010C02E000BF4FF0010CB8
:100A60004DF804CD4FEA410C7FEA6C5C4FEA430C31
:100A700018BF7FEA6C5C1BD001B050EA410C0CBF80
:100A800052EA430C91EA030F02BF90EA020F0020E2
:100A9000704710F1000F91EA030F58BF994208BF49
:100AA00090422CBFD8176FEAE37040F00100704706
:100AB0004FEA410C7FEA6C5C02D150EA013C07D15D
:100AC0004FEA430C7FEA6C5CD6D152EA033CD3D0A8
:100AD0005DF8040B704700BF8446104662468C46A2
:100AE0001946634600E000BF01B5FFF7B7FF0028D5
:100AF00048BF10F1000F01BD4DF808EDFFF7F4FFFE
:100B00000CBF012000205DF808FB00BF4DF808ED88
:100B1000FFF7EAFF34BF012000205DF808FB00BFAB
:100B20004DF808EDFFF7E0FF94BF012000205DF8CD
:100B300008FB00BF4DF808EDFFF7CEFF94BF012082
:100B400000205DF808FB00BF4DF808EDFFF7C4FF7B
:100B500034BF012000205DF808FB00BF4FEA4102CE
:100B600012F5001215D211D56FF47873B3EB6252FF
:100B700012D94FEAC12343F0004343EA505311F026
:100B8000004F23FA02F018BF404270474FF00000B8
:100B9000704750EA013005D111F0004008BF6FF0F6
:100BA000004070474FF00000704700BF4A0011D26C
:100BB00012F5001211D20DD56FF47873B3EB6252B7
:100BC0000ED44FEAC12343F0004343EA505323FAC3
:100BD00002F070474FF00000704750EA013002D138
:100BE0004FF0FF3070474FF0000070474FEA41026E
:100BF000B2F1E04324BFB3F5001CDCF1FE5C0DD97B
:100C000001F0004C4FEAC0024CEA5070B2F1004FC4
:100C100040EB830008BF20F00100704711F0804FC7
:100C200021D113F13872BCBF01F00040704741F48C
:100C300080114FEA5252C2F11802C2F1200C10FA90
:100C40000CF320FA02F018BF40F001004FEAC12374
:100C50004FEAD32303FA0CFC40EA0C0023FA02F318
:100C60004FEA4303CCE77FEA625307D150EA0133EE
:100C70001EBF4FF0FE4040F44000704701F00040BE
:100C800040F0FE4040F40000704700BF53B94AB93D
:100C9000002908BF00281CBF4FF0FF314FF0FF3084
:100CA00000F074B9ADF1080C6DE904CE00F006F85F
:100CB000DDF804E0DDE9022304B070472DE9F047D8
:100CC000089D04468E46002B4DD18A42944669D930
:100CD000B2FA82F252B101FA02F3C2F1200120FA13
:100CE00001F10CFA02FC41EA030E94404FEA1C4861
:100CF000210CBEFBF8F61FFA8CF708FB16E341EA5D
:100D0000034306FB07F199420AD91CEB030306F1E2
:100D1000FF3080F01F81994240F21C81023E634403
:100D20005B1AA4B2B3FBF8F008FB103344EA0344A7
:100D300000FB07F7A7420AD91CEB040400F1FF33BC
:100D400080F00A81A74240F207816444023840EAF9
:100D50000640E41B00261DB1D4400023C5E9004332
:100D60003146BDE8F0878B4209D9002D00F0EF80B5
:100D70000026C5E9000130463146BDE8F087B3FAE8
:100D800083F6002E4AD18B4202D3824200F2F980D0
:100D9000841A61EB030301209E46002DE0D0C5E9D3
:100DA000004EDDE702B9FFDEB2FA82F2002A40F01F
:100DB0009280A1EB0C014FEA1C471FFA8CFE012622
:100DC000200CB1FBF7F307FB131140EA01410EFBC6
:100DD00003F0884208D91CEB010103F1FF3802D26D
:100DE000884200F2CB804346091AA4B2B1FBF7F067
:100DF00007FB101144EA01440EFB00FEA64508D98A
:100E00001CEB040400F1FF3102D2A64500F2BB80C6
:100E10000846A4EB0E0440EA03409CE7C6F1200715
:100E2000B34022FA07FC4CEA030C20FA07F401FA5B
:100E300006F31C43F9404FEA1C4900FA06F3B1FBE4
:100E4000F9F8200C1FFA8CFE09FB181140EA014149
:100E500008FB0EF0884202FA06F20BD91CEB0101E6
:100E600008F1FF3A80F08880884240F28580A8F13E
:100E700002086144091AA4B2B1FBF9F009FB101190
:100E800044EA014100FB0EFE8E4508D91CEB01012E
:100E900000F1FF346CD28E456AD90238614440EAD1
:100EA0000840A0FB0294A1EB0E01A142C846A64651
:100EB00056D353D05DB1B3EB080261EB0E0101FADA
:100EC00007F722FA06F3F1401F43C5E90071002637
:100ED0003146BDE8F087C2F12003D8400CFA02FC8D
:100EE00021FA03F3914001434FEA1C471FFA8CFE9D
:100EF000B3FBF7F007FB10360B0C43EA064300FB8D
:100F00000EF69E4204FA02F408D91CEB030300F12A
:100F1000FF382FD29E422DD9023863449B1B89B2E1
:100F2000B3FBF7F607FB163341EA034106FB0EF36A
:100F30008B4208D91CEB010106F1FF3816D28B4217
:100F400014D9023E6144C91A46EA004638E72E46E3
:100F5000284605E70646E3E61846F8E64B45A9D2DB
:100F6000B9EB020864EB0C0E0138A3E74646EAE74A
:100F7000204694E74046D1E7D0467BE7023B6144F8
:100F800032E7304609E76444023842E7704700BF61
:100F9000B0B58AB000AFF860B9607A603B6097F88E
:100FA000443087F82630B7F84030BB84FB6B3B6297
:100FB0003B8FBB833B68BB617B687B61BB683B61EC
:100FC00007F11003184600F00EF8FB681D4607F104
:100FD00010040FCC0FC594E8030085E80300F868FF
:100FE0002837BD46B0BD80B582B000AF78607B6861
:100FF0009B7D002B0CD13321786800F073F83221EF
:10100000786800F06FF82821786800F06BF803E04A
:101010003821786800F066F80121786800F062F8FD
:101020000C21786800F05EF80621786800F05AF824
:1010300000BF0837BD4680BDB0B586B000AF786050
:1010400087ED000A3868FFF797FA04460D4607F166
:101050000C0319460A2045EC104B04F0DBFB07F1AA
:101060000C031946786800F004F800BF1837BD4635
:10107000B0BD90B585B000AF786039600023FB73D8
:101080000AE0FB7B3A6813441B781946786800F045
:1010900057F8FB7B0133FB73FC7B3868FFF7AAF83A
:1010A00003469C42EDD300BF00BF1437BD4690BD40
:1010B00080B582B000AF78600B46FB701346BB7002
:1010C000FB78074AD25CBB781344DBB2803BDBB2CF
:1010D0001946786800F006F800BF0837BD4680BDA5
:1010E000FC7F000880B582B000AF78600B46FB70D3
:1010F0007B6898687B689B890022194602F096FB02
:101100007B689B7D002B11D1FB781B09DBB204228D
:101110001946786800F042F8FB7803F00F03DBB261
:1011200004221946786800F039F805E0FB780822B7
:101130001946786800F032F800BF0837BD4680BD18
:1011400080B582B000AF78600B46FB707B68986812
:101150007B689B890122194602F068FB7B689B7DB6
:10116000002B11D1FB781B09DBB2042219467868E9
:1011700000F014F8FB7803F00F03DBB204221946E9
:10118000786800F00BF805E0FB78082219467868CB
:1011900000F004F800BF0837BD4680BD80B584B0BC
:1011A00000AF78600B46FB701346BB700023FB73E7
:1011B00019E07B681A68FB7B9B00134418687B6806
:1011C0005A68FB7B5B0013441988FA78FB7B42FA70
:1011D00003F3DBB203F00103DBB21A4602F026FB95
:1011E000FB7B0133FB73FA7BBB789A42E1D37B68CC
:1011F00018697B689B8A0122194602F017FB0120BF
:1012000001F028FB7B6818697B689B8A00221946DD
:1012100002F00CFB00BF1037BD4680BD80B584B026
:1012200000AF3B4600221A605A609A60DA600123E0
:101230003B6001237B600723BB603B4619460648A1
:1012400001F01EFE0346002B01D000F0E9FF00BFB5
:101250001037BD4680BD00BF9C00002080B584B023
:1012600000AF3B4600221A605A609A60DA6003239E
:101270003B6001237B600723BB603B461946064861
:1012800001F0FEFD0346002B01D000F0C9FF00BFB6
:101290001037BD4680BD00BF9C000020000000004C
:1012A000B0B590B004AF01F063FA00F097F900F028
:1012B000FDFB00F04FFA00F089FB00F0EDFA00F0C2
:1012C00037FB00F0F5F900224FF48051AE4802F0F0
:1012D000ADFA00224FF40051AB4802F0A7FA002209
:1012E0004FF48041A84802F0A1FA00224FF40041D7
:1012F000A54802F09BFA00220421A44802F096FAC5
:1013000000221021A14802F091FAC82001F0A2FAAF
:1013100001224FF480519C4802F088FA01224FF4D8
:101320000051994802F082FA01224FF48041964818
:1013300002F07CFA01224FF40041934802F076FA61
:1013400000220421914802F071FA012210218F48F5
:1013500002F06CFA012201218B4802F067FA0122A7
:101360000221894802F062FA01220421864802F033
:101370005DFA874B07F120040FCB84E80F00854A04
:1013800007F1180392E8030083E80300824C384613
:1013900007F1180207F120010023039304230293AD
:1013A0007E4B0193022300937C4BFFF7F1FD254612
:1013B0003C460FCC0FC594E8030085E803000222E9
:1013C00000217548FFF774FE75497348FFF751FE19
:1013D000002201217048FFF76BFE72496E48FFF74B
:1013E00048FE714802F022FF704802F01FFF70486B
:1013F00002F01CFF6F4802F019FF00216D4803F056
:10140000DBF80021684802F0CDFF6B4801F08AFA52
:101410006421694801F06DFB674801F005FD034652
:101420001A46664B1A60C82001F014FA634B1B6819
:101430001846FFF78FF850A3D3E90023FFF7F4F81D
:1014400002460B4610461946FFF7D0FB03465C4A9E
:101450001360002202215048FFF72AFE584BD3EDBB
:10146000007AB0EE670A4C48FFF7E6FD534B1B6865
:101470001846FFF76FF842A3D3E90023FFF7D4F82B
:1014800002460B464F4C10461946FFF78FFB0346AA
:101490006363FFF7C3FE484801F044FA64214648FD
:1014A00001F027FB444801F0BFFC03461A46464BB7
:1014B0001A60414801F0EAFA434B1B681846FFF7EF
:1014C00049F82DA3D3E90023FFF7AEF802460B46F7
:1014D00010461946FFF78AFB03463C4A1360002278
:1014E00002212D48FFF7E4FD384BD3ED007AB0EE32
:1014F000670A2948FFF7A0FDFFF7B0FE2E4801F06C
:1015000011FA64212C4801F0F4FA2B4801F08CFC0C
:1015100003461A462E4B1A60274801F0B7FA2C4BA7
:101520001B681846FFF716F813A3D3E90023FFF74B
:101530007BF802460B46104619464FF00002254B39
:10154000FFF772F802460B4610461946FFF706FBF6
:101550000346214A1360002203210F48FFF7A8FD2C
:101560001D4B1B6807EE903AF8EEE77AB0EE670A7B
:101570000948FFF761FD48E7503368B699CE4C3F04
:101580001973D712F241DF3F00040240000002400D
:10159000E47F0008F47F00085002002000080240A9
:1015A000D07F0008DC7F0008E40000202C01002030
:1015B00074010020BC0100209C0000206802002073
:1015C0006C02002000000140700200207802002020
:1015D00074020020000059407C02002080B594B0C5
:1015E00000AF07F1200330220021184604F060F913
:1015F00007F10C0300221A605A609A60DA601A61DF
:101600000023BB60284B1B6C274A43F080531364B4
:10161000254B1B6C03F08053BB60BB6800237B60D1
:10162000224B1B6823F44043204A43F400431360D9
:101630001E4B1B6803F440437B607B6802233B62C4
:101640000123FB6210233B630223BB630023FB6384
:1016500008233B6450237B640223BB640723FB64A1
:1016600007F12003184602F02DF90346002B01D0A4
:1016700000F0D6FD0F23FB6002233B6190237B61CA
:101680004FF48053BB610023FB6107F10C03002181
:10169000184602F08FFB0346002B01D000F0C0FD7E
:1016A00000BF5037BD4680BD00380240007000408A
:1016B00080B584B000AF3B4600221A605A609A6041
:1016C000DA60214B214A1A601F4B00225A601E4BE0
:1016D00000229A601C4B00221A611B4B00221A76D2
:1016E000194B002283F82020174B0022DA62164B98
:1016F000174A9A62144B0022DA60134B0122DA6116
:10170000114B002283F830200F4B01225A610E4802
:1017100001F0C4F80346002B01D000F081FD012345
:101720003B6001237B600723BB603B4619460648AC
:1017300001F0A6FB0346002B01D000F071FD00BFB5
:101740001037BD4680BD00BF9C0000200020014036
:101750000100000F80B596B000AF07F148030022EA
:101760001A605A609A60DA6007F1400300221A603A
:101770005A6007F1240300221A605A609A60DA6006
:101780001A615A619A613B1D20220021184604F01B
:101790008FF83F4B3F4A1A603D4B00225A603C4B4A
:1017A00000229A603A4B4FF4FA62DA60384B00221A
:1017B0001A61374B00225A61354B00229A61344836
:1017C00002F0E4FC0346002B01D000F029FD4FF4A9
:1017D0008053BB6407F1480319462D4803F06CFAA7
:1017E0000346002B01D000F01BFD294802F080FDCC
:1017F0000346002B01D000F013FD00233B640023BF
:101800007B6407F140031946214803F02FFF03468C
:10181000002B01D000F004FD60237B624FF4FA73CB
:10182000BB620023FB6200233B6300237B63002336
:10183000BB630023FB6307F124030022194614480D
:1018400003F078F90346002B01D000F0E9FC0023F7
:101850007B600023BB600023FB6000233B6100230F
:101860007B614FF40053BB6100233B623B1D194673
:10187000074803F069FF0346002B01D000F0D0FCBD
:10188000034800F0DFFD00BF5837BD4680BD00BFF4
:10189000E40000200000014080B586B000AF07F1F1
:1018A000080300221A605A609A60DA603B46002200
:1018B0001A605A601D4B4FF080421A601B4B632226
:1018C0005A601A4B00229A60184B46F2A812DA604E
:1018D000164B00221A61154B00229A61134802F040
:1018E00055FC0346002B01D000F09AFC4FF48053C6
:1018F000BB6007F1080319460C4803F0DDF9034605
:10190000002B01D000F08CFC00233B6000237B60A7
:101910003B461946054803F0A9FE0346002B01D0BB
:1019200000F07EFC00BF1837BD4680BD2C010020B2
:1019300080B586B000AF07F1080300221A605A6034
:101940009A60DA603B4600221A605A601D4B1E4ABC
:101950001A601C4B63225A601A4B00229A60194B82
:1019600046F2A812DA60174B00221A61154B0022CA
:101970009A61144802F00AFC0346002B01D000F0E3
:101980004FFC4FF48053BB6007F1080319460D4824
:1019900003F092F90346002B01D000F041FC002334
:1019A0003B6000237B603B461946064803F05EFE21
:1019B0000346002B01D000F033FC00BF1837BD46B2
:1019C00080BD00BF740100200004004080B58AB0D3
:1019D00000AF07F1180300221A605A609A60DA60BB
:1019E00007F1100300221A605A603B4600221A6079
:1019F0005A609A60DA602B4B2B4A1A60294B63229B
:101A00005A60284B00229A60264B46F2A812DA60F0
:101A1000244B00221A61234B00229A61214802F0D4
:101A2000B5FB0346002B01D000F0FAFB4FF48053C6
:101A3000BB6107F1180319461A4803F03DF9034644
:101A4000002B01D000F0ECFB164802F05BFD0346D2
:101A5000002B01D000F0E4FB00233B6100237B61FD
:101A600007F1100319460F4803F000FE0346002B50
:101A700001D000F0D5FB00233B6001237B600023F5
:101A8000BB600023FB603B4600221946054802F07C
:101A9000B5FF0346002B01D000F0C2FB00BF283782
:101AA000BD4680BDBC010020000C004080B58AB05E
:101AB00000AF07F1140300221A605A609A60DA60DE
:101AC0001A6100233B614C4B1B6B4B4A43F00403F0
:101AD0001363494B1B6B03F004033B613B69002319
:101AE000FB60454B1B6B444A43F080031363424B3E
:101AF0001B6B03F08003FB60FB680023BB603E4B65
:101B00001B6B3D4A43F0010313633B4B1B6B03F01C
:101B10000103BB60BB6800237B60374B1B6B364AFD
:101B200043F002031363344B1B6B03F002037B602F
:101B30007B680022F621314801F078FE0022342132
:101B40002F4801F073FE00224FF207012D4801F0EB
:101B50006DFE4FF400537B614FF40413BB6100230F
:101B6000FB6107F114031946244801F0C3FCF62376
:101B70007B610123BB610023FB6100233B6207F112
:101B8000140319461D4801F0B5FC34237B61012381
:101B9000BB610023FB6100233B6207F1140319467C
:101BA000174801F0A7FC4FF207037B610123BB61DB
:101BB0000023FB6100233B6207F11403194611481F
:101BC00001F098FC4FF470737B614FF48813BB6194
:101BD0000023FB6107F1140319460A4801F08AFC4F
:101BE00000220421172001F04EFC172001F067FCB1
:101BF00000BF2837BD4680BD0038024000080240C3
:101C0000000002400004024080B582B000AF0346ED
:101C1000FB8000F013FE0346AC4A1360AB4B1A681E
:101C2000AB4B1B68D31A0A2B40F21B82A94B4FF413
:101C300070721A60A74B00225A60A64B00229A606D
:101C4000A44B0022DA60A349A34801F053FC01220F
:101C50000121A14801F0EAFD002202219E4801F085
:101C6000E5FD002204219C4801F0E0FDFB88402BAB
:101C700019D14021984801F0C1FD0346002B12D034
:101C800000224FF48051944801F0D0FD934B312253
:101C90001A80934B1B68934A3121D154904B1B6897
:101CA00001338F4A1360FB88802B19D180218A4829
:101CB00001F0A4FD0346002B12D001224FF4005185
:101CC000854801F0B3FD854B34221A80844B1B6894
:101CD000844A3421D154824B1B680133804A1360FB
:101CE000FB88B3F5807F1AD14FF480717A4801F0F8
:101CF00085FD0346002B12D000224FF400417648A8
:101D000001F094FD754B37221A80754B1B68754A9C
:101D10003721D154724B1B680133714A1360FB8821
:101D2000B3F5007F16D14FF400716B4801F066FDEA
:101D30000346002B0ED04FF48051674801F08FFD11
:101D40004FF40051644801F08AFD654B1B68013374
:101D5000634A1360002201215F4801F067FD012200
:101D600002215D4801F062FD002204215A4801F081
:101D70005DFDFB88402B19D14021574801F03EFD05
:101D80000346002B12D001224FF48051524801F03B
:101D90004DFD524B32221A80514B1B68514A322161
:101DA000D1544F4B1B6801334D4A1360FB88802B85
:101DB00019D18021484801F021FD0346002B12D0A3
:101DC00000224FF48041444801F030FD434B35225E
:101DD0001A80434B1B68434A3521D154404B1B6842
:101DE00001333F4A1360FB88B3F5807F1AD14FF46B
:101DF0008071394801F002FD0346002B12D0012208
:101E00004FF40041344801F011FD344B38221A8060
:101E1000334B1B68334A3821D154314B1B68013393
:101E20002F4A1360FB88B3F5007F2CD14FF400716B
:101E3000294801F0E3FC0346002B24D000224FF494
:101E40008051254801F0F2FC00224FF40051224855
:101E500001F0ECFC00224FF480411F4801F0E6FC49
:101E600000224FF400411C4801F0E0FC1B4B3022E3
:101E70001A801B4B1B681B4A3021D154184B1B681E
:101E80000133174A136000220121134801F0CEFCF0
:101E900000220221104801F0C9FC012204210E4851
:101EA00001F0C4FCFB88402B28D140210A4801F0F6
:101EB000A5FC0346002B21D000224FF40051064818
:101EC00001F0B4FC054B33221A800DE01C02002007
:101ED000180200200402002000040240200200201A
:101EE0002402002008000020604B1B68604A332158
:101EF000D1545E4B1B6801335C4A1360FB88802B16
:101F000019D180215B4801F079FC0346002B12D0E7
:101F100001224FF48041574801F088FC564B36228D
:101F20001A80524B1B68524A3621D1544F4B1B68C2
:101F300001334E4A1360FB88B3F5807F2CD14FF4F8
:101F400080714C4801F05AFC0346002B24D001223A
:101F50004FF48051474801F069FC01224FF40051D1
:101F6000444801F063FC01224FF48041414801F0F4
:101F70005DFC01224FF400413E4801F057FC3E4B0E
:101F800039221A80394B1B68394A3921D154374BD1
:101F90001B680133354A1360FB88B3F5007F2DD1F0
:101FA0004FF40071334801F029FC0346002B25D083
:101FB0004FF480412F4801F052FC4FF400412D486E
:101FC00001F04DFC2A492D48FEF70AF90346002B83
:101FD00011D1002204212A4801F028FC4FF47A7024
:101FE00000F038FC01220421254801F01FFC254B9C
:101FF00001221A6002E0244B01221A600122012111
:102000001C4801F013FC012202211A4801F00EFCC9
:1020100001220421174801F009FC144B1B68DBB2B4
:102020000333DBB21A4601211848FFF741F8124981
:102030001648FFF71EF80D4B1B68042B02D10B4B03
:1020400000221A60124B4FF488125A60104B022281
:102050009A600F49074801F04DFA0E4B1B680E4A73
:10206000136000BF0837BD4680BD00BF24020020BA
:102070000800002000040240200200200000002090
:1020800000000240280200202C0200205002002004
:10209000040200201C0200201802002000000000A2
:1020A00080B582B000AF78607B681B684E4A93426F
:1020B00031D14E4B1B6801334C4A13604C4B1B68AB
:1020C00001334B4A13604B4B1B680133494A136081
:1020D000464B1B68022B07D14FF48041464801F064
:1020E000BEFB424B00221A60414B1B68052B07D1F7
:1020F0004FF40041404801F0B2FB3D4B00221A6012
:102100003C4B1B680A2B06D104213C4801F0A7FB7D
:10211000384B00221A607B681B68334A934204D113
:102120004FF48041344801F09AFB7B681B68B3F19F
:10213000804F04D14FF400412F4801F090FB7B68A1
:102140001B682F4A934203D104212C4801F087FBDE
:102150002C4B1B6801332B4A13602A4B1B68012B45
:1021600003D1294B5B6B294A1360264B1B68022B5A
:102170002FD1244B00221A60234B5B6B244A13603F
:10218000234B1A68214B1B68D31A1846FEF7D2F965
:1021900013A3D3E90023FEF747FA02460B46104685
:1021A00019464FF000021B4BFEF73EFA02460B4663
:1021B00010461946FEF71AFD0346174A1360164BE0
:1021C00093ED007AF7EE006AC6EE877A134BC3ED03
:1021D000007A00BF0837BD4680BD00BFAFF3008066
:1021E0009A9999999999D93F0000014030020020AD
:1021F00034020020380200200004024000000240A7
:102200000004004044020020000C0040480200206E
:102210004C02002000002840400200203C02002028
:1022200080B400AF72B600BFFEE7000080B483B098
:1022300000AF00237B60104B5B6C0F4A43F480437C
:1022400053640D4B5B6C03F480437B607B6800231D
:102250003B60094B1B6C084A43F080531364064BE8
:102260001B6C03F080533B603B6800BF0C37BD46DE
:102270005DF8047B704700BF0038024080B58AB02B
:1022800000AF786007F1140300221A605A609A6068
:10229000DA601A617B681B681B4A93422FD10023C6
:1022A0003B611A4B5B6C194A43F480735364174BC0
:1022B0005B6C03F480733B613B690023FB60134B51
:1022C0001B6B124A43F001031363104B1B6B03F0AB
:1022D0000103FB60FB680A237B610323BB610023CE
:1022E000FB6107F114031946094801F003F90022C4
:1022F0000021122001F0C7F8122001F0E0F800BF21
:102300002837BD4680BD00BF002001400038024094
:102310000000024080B58CB000AF786007F11C036C
:1023200000221A605A609A60DA601A617B681B6842
:102330003F4A934216D10023BB613E4B5B6C3D4A42
:1023400043F0010353643B4B5B6C03F00103BB613F
:10235000BB6900220021192001F095F8192001F035
:10236000AEF860E07B681B68B3F1804F0ED10023AC
:102370007B61304B1B6C2F4A43F0010313642D4BE0
:102380001B6C03F001037B617B694CE07B681B687D
:10239000294A93420ED100233B61264B1B6C254AF0
:1023A00043F002031364234B1B6C03F002033B61F5
:1023B0003B6938E07B681B68204A934233D1002395
:1023C000FB601C4B1B6C1B4A43F008031364194B46
:1023D0001B6C03F00803FB60FB680023BB60154B1C
:1023E0001B6B144A43F001031363124B1B6B03F086
:1023F0000103BB60BB680123FB6102233B62002336
:102400007B620023BB620223FB6207F11C031946B7
:102410000B4801F06FF800220021322001F033F860
:10242000322001F04CF800BF3037BD4680BD00BF00
:10243000000001400038024000040040000C004051
:102440000000024080B588B000AF786007F10C034F
:1024500000221A605A609A60DA601A617B681B6811
:10246000124A93421ED10023BB60114B1B6B104AD2
:1024700043F0010313630E4B1B6B03F00103BB60BE
:10248000BB684FF48073FB6002233B6100237B61D8
:102490000023BB610123FB6107F10C0319460548CA
:1024A00001F028F800BF2037BD4680BD0000014084
:1024B000003802400000024080B400AFFEE780B464
:1024C00000AFFEE780B400AFFEE780B400AFFEE7E8
:1024D00080B400AFFEE780B400AF00BFBD465DF83A
:1024E000047B704780B400AF00BFBD465DF8047B3D
:1024F000704780B400AF00BFBD465DF8047B7047F5
:1025000080B500AF00F086F900BF80BD80B500AF98
:10251000024800F079FB00BF80BD00BF9C00002096
:1025200080B500AF402001F0B5F9802001F0B2F98C
:102530004FF4807001F0AEF94FF4007001F0AAF989
:1025400000BF80BD80B500AF024802F04FF900BF68
:1025500080BD00BFE400002080B500AF024802F05B
:1025600045F900BF80BD00BFBC01002080B400AFB2
:1025700001231846BD465DF8047B704780B582B0E4
:1025800000AF7860396003F069F9034616221A60DB
:102590004FF0FF3318460837BD4680BD80B582B086
:1025A00000AF78604FF0FF317868FFF7E7FFFEE794
:1025B00080B586B000AFF860B9607A6000237B61B7
:1025C0000AE0AFF300800146BB685A1CBA60CAB289
:1025D0001A707B6901337B617A697B689A42F0DB10
:1025E0007B6818461837BD4680BD80B586B000AF01
:1025F000F860B9607A6000237B6109E0BB685A1C0F
:10260000BA601B781846AFF300807B6901337B61A9
:102610007A697B689A42F1DB7B6818461837BD46B9
:1026200080BD80B483B000AF78604FF0FF331846B0
:102630000C37BD465DF8047B704780B483B000AFB3
:10264000786039603B684FF400525A6000231846A6
:102650000C37BD465DF8047B704780B483B000AF93
:102660007860012318460C37BD465DF8047B70473F
:1026700080B485B000AFF860B9607A600023184676
:102680001437BD465DF8047B7047000080B586B006
:1026900000AF7860144A154BD31A7B617B693B61AC
:1026A000134B1B68002B02D1114B124A1A60104BBE
:1026B0001A687B6813443A699A4207D203F0CEF84D
:1026C00003460C221A604FF0FF3309E0084B1B68E9
:1026D000FB60074B1A687B681344054A1360FB686C
:1026E00018461837BD4680BD008001200004000058
:1026F000800200209802002080B400AF064BD3F87F
:102700008830054A43F47003C2F8883000BFBD46E4
:102710005DF8047B704700BF00ED00E0DFF834D0C7
:102720000D480E490E4A002302E0D458C450043329
:10273000C4188C42F9D30B4A0B4C002301E0136000
:102740000432A242FBD3FFF7D7FF03F08DF8FEF768
:10275000A7FD7047008001200000002080000020BD
:10276000E08200088000002098020020FEE70000C0
:1027700080B500AF0E4B1B680D4A43F40073136025
:102780000B4B1B680A4A43F480631360084B1B68B9
:10279000074A43F480731360032000F069FE0220AF
:1027A00000F008F8FFF742FD0023184680BD00BF87
:1027B000003C024080B582B000AF7860124B1A68CE
:1027C000124B1B7819464FF47A73B3FBF1F3B2FB4B
:1027D000F3F3184600F081FE0346002B01D00123DD
:1027E0000EE07B680F2B0AD8002279684FF0FF308B
:1027F00000F049FE064A7B681360002300E00123D5
:1028000018460837BD4680BD100000201800002083
:102810001400002080B400AF064B1B781A46064B0C
:102820001B681344044A136000BFBD465DF8047B77
:10283000704700BF180000208402002080B400AF61
:10284000034B1B681846BD465DF8047B704700BF0C
:102850008402002080B584B000AF7860FFF7EEFFFF
:10286000B8607B68FB60FB68B3F1FF3F05D00A4BA3
:102870001B781A46FB681344FB6000BFFFF7DEFFBE
:102880000246BB68D31AFA689A42F7D800BF00BF65
:102890001037BD4680BD00BF1800002080B584B051
:1028A00000AF78600023FB737B68002B01D101230C
:1028B00033E07B681B6C002B09D17868FFF7DEFCE6
:1028C0007B6800225A647B68002283F83C207B6886
:1028D0001B6C03F01003002B18D17B681B6C23F4D6
:1028E000885323F0020343F002027B681A6478687D
:1028F00000F0E8FB7B6800225A647B681B6C23F0C5
:10290000030343F001027B681A6401E00123FB73B7
:102910007B68002283F83C20FB7B18461037BD46BD
:1029200080BD000080B485B000AF78600023BB603C
:102930007B6893F83C30012B01D1022397E07B6840
:10294000012283F83C207B681B689B6803F001032D
:10295000012B18D07B681B689A687B681B6842F063
:1029600001029A60454B1B68454AA2FB03239A0C5F
:1029700013465B001344BB6002E0BB68013BBB60D5
:10298000BB68002BF9D17B681B689B6803F00103CF
:10299000012B5FD17B681B6C23F4E06323F0010300
:1029A00043F480727B681A647B681B685B6803F47D
:1029B0008063002B07D07B681B6C23F4405343F4E7
:1029C00080527B681A647B681B6C03F48053B3F5F8
:1029D000805F06D17B685B6C23F006027B685A64DB
:1029E00002E07B6800225A647B68002283F83C2066
:1029F000244BFB607B681B686FF022021A60FB6847
:102A00005B6803F01F03002B0FD17B681B689B687A
:102A100003F04053002B29D17B681B689A687B68C0
:102A20001B6842F080429A6020E07B681B68164A6F
:102A300093421BD17B681B689B6803F04053002BBB
:102A400014D17B681B689A687B681B6842F08042DF
:102A50009A600BE07B681B6C43F010027B681A6481
:102A60007B685B6C43F001027B685A640023184664
:102A70001437BD465DF8047B704700BF100000208E
:102A800083DE1B43002301400020014080B483B05B
:102A900000AF78607B6893F83C30012B01D10223B2
:102AA00021E07B68012283F83C207B681B689A68E0
:102AB0007B681B6822F001029A607B681B689B6838
:102AC00003F00103002B09D17B681B6C23F48853AE
:102AD00023F0010343F001027B681A647B68002243
:102AE00083F83C20002318460C37BD465DF8047B74
:102AF000704780B584B000AF786039600023FB6018
:102B00007B681B689B6803F48063B3F5806F13D107
:102B10007B681B689B6803F48073B3F5807F0BD1DF
:102B20007B681B6C43F020027B681A647B68002280
:102B300083F83C20012363E0FFF780FEF86021E08A
:102B40003B68B3F1FF3F1DD03B68002B07D0FFF778
:102B500075FE0246FB68D31A3A689A4212D27B6825
:102B60001B681B6803F00203022B0BD07B681B6CF5
:102B700043F004027B681A647B68002283F83C20DF
:102B800003233DE07B681B681B6803F00203022BF4
:102B9000D6D17B681B686FF012021A607B681B6CD1
:102BA00043F400727B681A647B681B689B6803F0BF
:102BB0004053002B23D17B681B7E002B1FD17B68E9
:102BC0001B68DB6A03F47003002B06D07B681B686C
:102BD0009B6803F48063002B11D17B681B6C23F48A
:102BE00080727B681A647B681B6C03F48053002B33
:102BF00005D17B681B6C43F001027B681A640023DB
:102C000018461037BD4680BD80B586B000AF7860ED
:102C100000237B6100233B617B681B681B68FB60B2
:102C20007B681B685B68BB60FB6803F002037B6129
:102C3000BB6803F020033B617B69002B49D03B69F3
:102C4000002B46D07B681B6C03F01003002B05D1D2
:102C50007B681B6C43F400727B681A647B681B689A
:102C60009B6803F04053002B2BD17B681B7E002B0D
:102C700027D17B681B68DB6A03F47003002B06D046
:102C80007B681B689B6803F48063002B19D17B6809
:102C90001B685A687B681B6822F020025A607B68B8
:102CA0001B6C23F480727B681A647B681B6C03F4D2
:102CB0008053002B05D17B681B6C43F001027B68BD
:102CC0001A64786800F0BDF87B681B686FF0120228
:102CD0001A60FB6803F004037B61BB6803F08003A8
:102CE0003B617B69002B57D03B69002B54D07B683C
:102CF0001B6C03F01003002B05D17B681B6C43F4A5
:102D000000527B681A647B681B689B6803F440135D
:102D1000002B39D17B681B689B6B03F44013002B9D
:102D200006D07B681B689B6803F48063002B2BD163
:102D30007B681B685B6803F48063002B24D17B688D
:102D40001B689B6803F04053002B1DD17B681B7EE2
:102D5000002B19D17B681B685A687B681B6822F0BE
:102D600080025A607B681B6C23F480527B681A6473
:102D70007B681B6C03F48073002B05D17B681B6C94
:102D800043F001027B681A64786800F097FA7B6868
:102D90001B686FF00C021A60FB6803F001037B6193
:102DA000BB6803F040033B617B69002B17D03B6994
:102DB000002B14D07B681B681B6803F00103012BF8
:102DC0000DD17B681B6C43F480327B681A64786891
:102DD00000F041F87B681B686FF001021A60FB6825
:102DE00003F020037B61BB6803F080633B617B6978
:102DF000002B15D03B69002B12D07B685B6C43F035
:102E000002027B685A647B681B686FF020021A60BC
:102E1000786800F02AF87B681B686FF020021A605F
:102E200000BF1837BD4680BD80B483B000AF786066
:102E30007B681B68DB6C18460C37BD465DF8047B6D
:102E4000704780B483B000AF786000BF0C37BD46D8
:102E50005DF8047B704780B483B000AF786000BF3A
:102E60000C37BD465DF8047B704780B483B000AF7B
:102E7000786000BF0C37BD465DF8047B70470000EA
:102E800080B485B000AF786039600023BB607B6898
:102E900093F83C30012B01D1022305E17B6801222C
:102EA00083F83C203B681B68092B25D97B681B688D
:102EB000D9683B681B689BB21A4613465B001344F3
:102EC0001E3B072202FA03F3DA437B681B680A40C1
:102ED000DA607B681B68D9683B689A683B681B6846
:102EE0009BB2184603465B0003441E3B9A407B6836
:102EF0001B680A43DA6022E07B681B6819693B683B
:102F00001B689BB21A4613465B001344072202FA61
:102F100003F3DA437B681B680A401A617B681B680D
:102F200019693B689A683B681B689BB21846034660
:102F30005B0003449A407B681B680A431A613B6844
:102F40005B68062B24D87B681B68596B3B685A6802
:102F500013469B001344053B1F2202FA03F3DA4396
:102F60007B681B680A405A637B681B68596B3B6827
:102F70001B689BB218463B685A6813469B00134473
:102F8000053B00FA03F27B681B680A435A634CE076
:102F90003B685B680C2B24D87B681B68196B3B680B
:102FA0005A6813469B001344233B1F2202FA03F383
:102FB000DA437B681B680A401A637B681B68196BDD
:102FC0003B681B689BB218463B685A6813469B00D7
:102FD0001344233B00FA03F27B681B680A431A631D
:102FE00023E07B681B68D96A3B685A6813469B00DC
:102FF0001344413B1F2202FA03F3DA437B681B6848
:103000000A40DA627B681B68D96A3B681B689BB21E
:1030100018463B685A6813469B001344413B00FA2C
:1030200003F27B681B680A43DA62224BFB607B6811
:103030001B68214A934209D13B681B68122B05D1BA
:10304000FB685B6843F48002FB685A607B681B681E
:10305000194A934223D13B681B68102B03D03B686D
:103060001B68112B1BD1FB685B6843F40002FB68F3
:103070005A603B681B68102B11D1104B1B68104A1B
:10308000A2FB03239A0C13469B0013445B00BB6016
:1030900002E0BB68013BBB60BB68002BF9D17B68D9
:1030A000002283F83C20002318461437BD465DF803
:1030B000047B7047002301400020014010000020E5
:1030C00083DE1B4380B485B000AF7860794BFB6032
:1030D000FB685B6823F44032FB685A60FB685A68FF
:1030E0007B685B681A43FB685A607B681B685A6898
:1030F0007B681B6822F480725A607B681B68596881
:103100007B681B691A027B681B680A435A607B68EC
:103110001B685A687B681B6822F040725A607B68A3
:103120001B6859687B689A687B681B680A435A6009
:103130007B681B689A687B681B6822F400629A604F
:103140007B681B6899687B68DA687B681B680A4340
:103150009A607B689B6A584A934222D07B681B68BE
:103160009A687B681B6822F070629A607B681B68B3
:1031700099687B689A6A7B681B680A439A607B68D7
:103180001B689A687B681B6822F040529A607B68D3
:103190001B6899687B68DA6A7B681B680A439A60D7
:1031A0000FE07B681B689A687B681B6822F070627E
:1031B0009A607B681B689A687B681B6822F04052A3
:1031C0009A607B681B689A687B681B6822F0020221
:1031D0009A607B681B6899687B681B7E5A007B68D5
:1031E0001B680A439A607B6893F82030002B1BD041
:1031F0007B681B685A687B681B6842F400625A60EF
:103200007B681B685A687B681B6822F460425A60BE
:103210007B681B6859687B685B6A013B5A037B6863
:103220001B680A435A6007E07B681B685A687B6822
:103230001B6822F400625A607B681B68DA6A7B684C
:103240001B6822F47002DA627B681B68D96A7B68AB
:10325000DB69013B1A057B681B680A43DA627B68FD
:103260001B689A687B681B6822F400729A607B680E
:103270001B6899687B6893F830305A027B681B683A
:103280000A439A607B681B689A687B681B6822F413
:1032900080629A607B681B6899687B685B699A02A8
:1032A0007B681B680A439A6000BF1437BD465DF80F
:1032B000047B7047002301400100000F80B483B0FD
:1032C00000AF786000BF0C37BD465DF8047B7047E7
:1032D00080B485B000AF78607B6803F00703FB60C3
:1032E0000C4BDB68BB60BA684FF6FF031340BB6052
:1032F000FB681A02BB68134343F0BF6343F4003317
:10330000BB60044ABB68D36000BF1437BD465DF89C
:10331000047B704700ED00E080B400AF044BDB6835
:103320001B0A03F007031846BD465DF8047B70478F
:1033300000ED00E080B483B000AF0346FB7197F965
:103340000730002B0BDBFB7903F01F02074997F9CD
:1033500007305B09012000FA02F241F8232000BF88
:103360000C37BD465DF8047B704700BF00E100E00C
:1033700080B483B000AF03463960FB7197F9073022
:10338000002B0ADB3B68DAB20C4997F907301201CF
:10339000D2B20B4483F800230AE03B68DAB2084952
:1033A000FB7903F00F03043B1201D2B20B441A76EF
:1033B00000BF0C37BD465DF8047B704700E100E0BC
:1033C00000ED00E080B489B000AFF860B9607A60C9
:1033D000FB6803F00703FB61FB69C3F10703042BE0
:1033E00028BF0423BB61FB690433062B02D9FB69A8
:1033F000033B00E000237B614FF0FF32BB6902FA20
:1034000003F3DA43BB681A407B699A404FF0FF31FF
:103410007B6901FA03F3D9437B680B4013431846D9
:103420002437BD465DF8047B7047000080B582B04C
:1034300000AF78607B68013BB3F1807F01D301234B
:103440000FE00A4A7B68013B53600F214FF0FF30C9
:10345000FFF78EFF054B00229A60044B07221A608B
:10346000002318460837BD4680BD00BF10E000E0CD
:1034700080B582B000AF78607868FFF729FF00BFA1
:103480000837BD4680BD80B586B000AF0346B96041
:103490007A60FB7300237B61FFF73EFF78617A68F7
:1034A000B9687869FFF78EFF024697F90F30114629
:1034B0001846FFF75DFF00BF1837BD4680BD80B5D9
:1034C00082B000AF0346FB7197F907301846FFF74B
:1034D00031FF00BF0837BD4680BD80B582B000AF68
:1034E00078607868FFF7A2FF034618460837BD46A4
:1034F00080BD000080B489B000AF786039600023DF
:103500007B6100233B610023BB610023FB6159E128
:103510000122FB6902FA03F37B613B681B687A694D
:1035200013403B613A697B699A4240F048813B68AD
:103530005B6803F00303012B05D03B685B6803F075
:103540000303022B30D17B689B68BB61FB695B0086
:10355000032202FA03F3DB43BA691340BB613B6801
:10356000DA68FB695B0002FA03F3BA691343BB61D3
:103570007B68BA699A607B685B68BB610122FB6902
:1035800002FA03F3DB43BA691340BB613B685B6833
:103590001B0903F00102FB6902FA03F3BA69134342
:1035A000BB617B68BA695A603B685B6803F00303E0
:1035B000032B17D07B68DB68BB61FB695B000322D0
:1035C00002FA03F3DB43BA691340BB613B689A68B4
:1035D000FB695B0002FA03F3BA691343BB617B68C2
:1035E000BA69DA603B685B6803F00303022B23D1FE
:1035F000FB69DA087B68083253F82230BB61FB694B
:1036000003F007039B000F2202FA03F3DB43BA69BE
:103610001340BB613B681A69FB6903F007039B0019
:1036200002FA03F3BA691343BB61FB69DA087B68EA
:103630000832B96943F822107B681B68BB61FB69DB
:103640005B00032202FA03F3DB43BA691340BB6158
:103650003B685B6803F00302FB695B0002FA03F35B
:10366000BA691343BB617B68BA691A603B685B68DF
:1036700003F44033002B00F0A2800023FB60574B83
:103680005B6C564A43F480435364544B5B6C03F4C5
:103690008043FB60FB68524AFB699B08023352F887
:1036A0002330BB61FB6903F003039B000F2202FA86
:1036B00003F3DB43BA691340BB617B68494A934219
:1036C00019D07B68484A934213D07B68474A93429B
:1036D0000DD07B68464A934207D07B68454A9342A7
:1036E00001D1042308E0072306E0032304E00223BA
:1036F00002E0012300E00023FA6902F003029200D5
:103700009340BA691343BB613549FB699B08023397
:10371000BA6941F82320384B9B68BB613B69DB43A6
:10372000BA691340BB613B685B6803F48013002BEC
:1037300003D0BA693B691343BB612F4ABB699360ED
:103740002D4BDB68BB613B69DB43BA691340BB614E
:103750003B685B6803F40013002B03D0BA693B6934
:103760001343BB61244ABB69D360234B5B68BB61D5
:103770003B69DB43BA691340BB613B685B6803F498
:103780000033002B03D0BA693B691343BB611A4A6B
:10379000BB695360184B1B68BB613B69DB43BA696B
:1037A0001340BB613B685B6803F48033002B03D09C
:1037B000BA693B691343BB610F4ABB691360FB697C
:1037C0000133FB61FB690F2B7FF6A2AE00BF00BF88
:1037D0002437BD465DF8047B704700BF00380240C7
:1037E000003801400000024000040240000802408E
:1037F000000C024000100240003C014080B485B043
:1038000000AF78600B467B807B681A697B88134029
:10381000002B02D00123FB7301E00023FB73FB7B31
:1038200018461437BD465DF8047B704780B483B0FA
:1038300000AF78600B467B8013467B707B78002B53
:1038400003D07A887B689A6103E07B881A047B68DE
:103850009A6100BF0C37BD465DF8047B704780B4A9
:1038600085B000AF78600B467B807B685B69FB604E
:103870007A88FB6813401A04FB68D9437B880B40A5
:103880001A437B689A6100BF1437BD465DF8047B1C
:103890007047000080B582B000AF0346FB80084B44
:1038A0005A69FB881340002B06D0054AFB885361F8
:1038B000FB881846FEF7A8F900BF0837BD4680BD53
:1038C000003C014080B586B000AF78607B68002B7B
:1038D00001D1012367E27B681B6803F00103002B21
:1038E00075D0884B9B6803F00C03042B0CD0854BE0
:1038F0009B6803F00C03082B12D1824B5B6803F426
:103900008003B3F5800F0BD17E4B1B6803F40033AB
:10391000002B5BD07B685B68002B57D1012342E210
:103920007B685B68B3F5803F06D1764B1B68754AB0
:1039300043F4803313601DE07B685B68B3F5A02F10
:103940000CD1704B1B686F4A43F4802313606D4B9E
:103950001B686C4A43F4803313600BE0694B1B68AF
:10396000684A23F480331360664B1B68654A23F46E
:10397000802313607B685B68002B13D0FEF75EFF2B
:10398000386108E0FEF75AFF02463B69D31A642B00
:1039900001D9032307E25B4B1B6803F40033002BC0
:1039A000F0D014E0FEF74AFF386108E0FEF746FF6A
:1039B00002463B69D31A642B01D90323F3E1514B2F
:1039C0001B6803F40033002BF0D100E000BF7B68DC
:1039D0001B6803F00203002B63D04A4B9B6803F083
:1039E0000C03002B0BD0474B9B6803F00C03082BF8
:1039F0001CD1444B5B6803F48003002B16D1414B70
:103A00001B6803F00203002B05D07B68DB68012BE9
:103A100001D00123C7E13B4B1B6823F0F8027B6810
:103A20001B69DB00374913430B603AE07B68DB68B6
:103A3000002B20D0344B01221A60FEF7FFFE3861C4
:103A400008E0FEF7FBFE02463B69D31A022B01D9C0
:103A50000323A8E12B4B1B6803F00203002BF0D0DB
:103A6000284B1B6823F0F8027B681B69DB002549A3
:103A700013430B6015E0244B00221A60FEF7DEFEB4
:103A8000386108E0FEF7DAFE02463B69D31A022BE2
:103A900001D9032387E11B4B1B6803F00203002BB2
:103AA000F0D17B681B6803F00803002B36D07B68DD
:103AB0005B69002B16D0154B01221A60FEF7BEFE83
:103AC000386108E0FEF7BAFE02463B69D31A022BC2
:103AD00001D9032367E10B4B5B6F03F00203002B5B
:103AE000F0D01BE0094B00221A60FEF7A7FE3861F8
:103AF0000EE0FEF7A3FE02463B69D31A022B07D95C
:103B0000032350E10038024000004742800E474244
:103B1000884B5B6F03F00203002BEAD17B681B68C4
:103B200003F00403002B00F097800023FB75814B0A
:103B30001B6C03F08053002B0FD10023BB607D4B27
:103B40001B6C7C4A43F0805313647A4B1B6C03F06C
:103B50008053BB60BB680123FB75774B1B6803F484
:103B60008073002B18D1744B1B68734A43F4807325
:103B70001360FEF763FE386108E0FEF75FFE024661
:103B80003B69D31A022B01D903230CE16A4B1B6852
:103B900003F48073002BF0D07B689B68012B06D167
:103BA000644B1B6F634A43F0010313671CE07B689F
:103BB0009B68052B0CD15F4B1B6F5E4A43F00403DF
:103BC00013675C4B1B6F5B4A43F0010313670BE009
:103BD000584B1B6F574A23F001031367554B1B6F5C
:103BE000544A23F0040313677B689B68002B15D0AD
:103BF000FEF724FE38610AE0FEF720FE02463B692C
:103C0000D31A41F28832934201D90323CBE0494BC6
:103C10001B6F03F00203002BEED014E0FEF70EFE44
:103C200038610AE0FEF70AFE02463B69D31A41F208
:103C30008832934201D90323B5E03E4B1B6F03F05A
:103C40000203002BEED1FB7D012B05D1394B1B6C00
:103C5000384A23F0805313647B689B69002B00F083
:103C6000A180344B9B6803F00C03082B5CD07B686D
:103C70009B69022B41D1314B00221A60FEF7DEFD19
:103C8000386108E0FEF7DAFD02463B69D31A022BE1
:103C900001D9032387E0274B1B6803F00073002B37
:103CA000F0D17B68DA697B681B6A1A437B685B6AC0
:103CB0009B011A437B689B6A5B08013B1B041A4308
:103CC0007B68DB6A1B061B4913434B601B4B0122BD
:103CD0001A60FEF7B3FD386108E0FEF7AFFD02465B
:103CE0003B69D31A022B01D903235CE0114B1B68FB
:103CF00003F00073002BF0D054E0104B00221A6048
:103D0000FEF79CFD386108E0FEF798FD02463B692E
:103D1000D31A022B01D9032345E0064B1B6803F09D
:103D20000073002BF0D13DE07B689B69012B07D12C
:103D3000012338E000380240007000406000474234
:103D40001B4B5B68FB607B689B69012B28D0FB6881
:103D500003F480027B68DB699A4221D1FB6803F09F
:103D60003F027B681B6A9A421AD1FA6847F6C07311
:103D700013407A68526A9201934211D1FB6803F4AE
:103D800040327B689B6A5B08013B1B049A4207D167
:103D9000FB6803F070627B68DB6A1B069A4201D005
:103DA000012300E0002318461837BD4680BD00BF40
:103DB0000038024080B584B000AF786039607B681D
:103DC000002B01D10123CCE0684B1B6803F00703F3
:103DD0003A689A420CD9654B3A68D2B21A70634B72
:103DE0001B6803F007033A689A4201D00123B8E048
:103DF0007B681B6803F00203002B20D07B681B68E4
:103E000003F00403002B05D0594B9B68584A43F438
:103E1000E05393607B681B6803F00803002B05D018
:103E2000534B9B68524A43F460439360504B9B68EA
:103E300023F0F0027B689B684D4913438B607B68DD
:103E40001B6803F00103002B44D07B685B68012BE7
:103E500007D1474B1B6803F40033002B19D1012312
:103E60007FE07B685B68022B03D07B685B68032B79
:103E700007D13F4B1B6803F00073002B09D10123CE
:103E80006FE03B4B1B6803F00203002B01D10123C1
:103E900067E0374B9B6823F003027B685B6834491B
:103EA00013438B60FEF7CAFCF8600AE0FEF7C6FC1D
:103EB0000246FB68D31A41F28832934201D90323A8
:103EC0004FE02B4B9B6803F00C027B685B689B0008
:103ED0009A42EBD1254B1B6803F007033A689A42DC
:103EE0000CD2224B3A68D2B21A70204B1B6803F0F6
:103EF00007033A689A4201D0012332E07B681B68CD
:103F000003F00403002B08D0194B9B6823F4E05204
:103F10007B68DB68164913438B607B681B6803F082
:103F20000803002B09D0124B9B6823F460427B6886
:103F30001B69DB000E4913438B6000F021F8024639
:103F40000B4B9B681B0903F00F030A49CB5C22FA59
:103F500003F3094A1360094B1B681846FEF72AFC55
:103F6000002318461037BD4680BD00BF003C02400C
:103F700000380240008000081000002014000020DB
:103F80002DE9B04F94B000AF00237B640023FB64A5
:103F900000233B640023BB64794B9B6803F00C0354
:103FA000082B0DD0082B00F2E180002B02D0042B4F
:103FB00003D0DBE0734BBB64DBE0734BBB64D8E046
:103FC0006F4B5B6803F03F037B646D4B5B6803F4EE
:103FD0008003002B63D06A4B5B689B090022BB63A4
:103FE000FA63BB6BC3F308033B6300237B63D7E92E
:103FF0000C4522462B464FF000004FF000015901BE
:1040000041EAD261500102460B462146511A3961FC
:10401000294663EB01037B614FF000024FF0000380
:10402000D7E904AB59468B01514643EA91635146A7
:104030008A015146B2EB0108594663EB01094FF082
:1040400000024FF000034FEAC90343EA58734FEAF6
:10405000C80290469946234618EB0303BB602B46E3
:1040600049EB0303FB604FF000024FF00003D7E978
:10407000024529464B02214643EAD15321464A02D2
:10408000104619467B6C0022BB62FA62D7E90A230C
:10409000FCF7FCFD02460B461346FB6458E0384B28
:1040A0005B689B09002218461146C0F308033B6277
:1040B00000237B62D7E9088942464B464FF0000057
:1040C0004FF00001590141EAD261500102460B460E
:1040D0004146B2EB010A494663EB010B4FF0000287
:1040E0004FF000034FEA8B1343EA9A634FEA8A12B8
:1040F000B2EB0A0463EB0B054FF000024FF0000334
:10410000EB0043EA5473E20014461D464346E318AD
:104110003B604B4645EB03037B604FF000024FF0E2
:104120000003D7E9004529468B02214643EA915313
:1041300021468A02104619467B6C0022BB61FA6157
:10414000D7E90623FCF7A2FD02460B461346FB64A3
:104150000B4B5B681B0C03F0030301335B003B64F8
:10416000FA6C3B6CB2FBF3F3BB6402E0054BBB643F
:1041700000BFBB6C18465037BD46BDE8B08F00BFCE
:10418000003802400024F40000127A0080B582B0AA
:1041900000AF78607B68002B01D1012341E07B6890
:1041A00093F83D30DBB2002B06D17B68002283F808
:1041B0003C207868FEF7AEF87B68022283F83D2049
:1041C0007B681A687B6804331946104600F064FE69
:1041D0007B68012283F846207B68012283F83E2019
:1041E0007B68012283F83F207B68012283F840200E
:1041F0007B68012283F841207B68012283F84220FA
:104200007B68012283F843207B68012283F84420E5
:104210007B68012283F845207B68012283F83D20DA
:10422000002318460837BD4680BD000080B485B025
:1042300000AF78607B6893F83D30DBB2012B01D092
:10424000012344E07B68022283F83D207B681B68E1
:10425000DA687B681B6842F00102DA607B681B68E1
:104260001E4A934218D07B681B68B3F1804F13D06D
:104270007B681B681A4A93420ED07B681B68194AF8
:10428000934209D07B681B68174A934204D07B682D
:104290001B68164A934211D17B681B689B6803F028
:1042A0000703FB60FB68062B10D07B681B681A684D
:1042B0007B681B6842F001021A6007E07B681B689C
:1042C0001A687B681B6842F001021A6000231846D6
:1042D0001437BD465DF8047B704700BF0000014005
:1042E0000004004000080040000C00400040014075
:1042F00080B582B000AF78607B68002B01D10123CC
:1043000041E07B6893F83D30DBB2002B06D17B683F
:10431000002283F83C20786800F039F87B6802229C
:1043200083F83D207B681A687B6804331946104681
:1043300000F0B2FD7B68012283F846207B680122F1
:1043400083F83E207B68012283F83F207B680122AE
:1043500083F840207B68012283F841207B6801229A
:1043600083F842207B68012283F843207B68012286
:1043700083F844207B68012283F845207B68012272
:1043800083F83D20002318460837BD4680BD80B421
:1043900083B000AF786000BF0C37BD465DF8047B8A
:1043A0007047000080B584B000AF786039603B682A
:1043B000002B09D17B6893F83E30DBB2012B14BF90
:1043C00001230023DBB222E03B68042B09D17B6888
:1043D00093F83F30DBB2012B14BF01230023DBB283
:1043E00015E03B68082B09D17B6893F84030DBB2BD
:1043F000012B14BF01230023DBB208E07B6893F894
:104400004130DBB2012B14BF01230023DBB2002BB0
:1044100001D0012368E03B68002B04D17B680222B5
:1044200083F83E2013E03B68042B04D17B68022212
:1044300083F83F200BE03B68082B04D17B68022205
:1044400083F8402003E07B68022283F841207B68E8
:104450001B6801223968184601F0E2F87B681B6886
:10446000234A934207D17B681B685A6C7B681B68A0
:1044700042F400425A647B681B681D4A934218D07C
:104480007B681B68B3F1804F13D07B681B68194AA7
:1044900093420ED07B681B68174A934209D07B6811
:1044A0001B68164A934204D07B681B68144A9342E7
:1044B00011D17B681B689B6803F00703FB60FB68F6
:1044C000062B10D07B681B681A687B681B6842F05B
:1044D00001021A6007E07B681B681A687B681B682A
:1044E00042F001021A60002318461037BD4680BD15
:1044F000000001400004004000080040000C0040A3
:104500000040014080B582B000AF78607B68002B2E
:1045100001D1012341E07B6893F83D30DBB2002BF1
:1045200006D17B68002283F83C20786800F039F8D7
:104530007B68022283F83D207B681A687B6804331D
:104540001946104600F0A8FC7B68012283F846203B
:104550007B68012283F83E207B68012283F83F209C
:104560007B68012283F840207B68012283F8412088
:104570007B68012283F842207B68012283F8432074
:104580007B68012283F844207B68012283F8452060
:104590007B68012283F83D20002318460837BD467A
:1045A00080BD80B483B000AF786000BF0C37BD46DB
:1045B0005DF8047B7047000080B584B000AF786080
:1045C00039600023FB733B68002B04D17B6893F8B0
:1045D0003E30DBB213E03B68042B04D17B6893F8D8
:1045E0003F30DBB20BE03B68082B04D17B6893F8CB
:1045F0004030DBB203E07B6893F84130DBB2BB7341
:104600003B68002B04D17B6893F84230DBB213E0A7
:104610003B68042B04D17B6893F84330DBB20BE09A
:104620003B68082B04D17B6893F84430DBB203E08D
:104630007B6893F84530DBB27B73BB7B012B02D1E7
:104640007B7B012B01D00123C2E03B68002B04D10E
:104650007B68022283F83E2013E03B68042B04D1E0
:104660007B68022283F83F200BE03B68082B04D1D3
:104670007B68022283F8402003E07B68022283F8F3
:1046800041203B68002B04D17B68022283F8422042
:1046900013E03B68042B04D17B68022283F843209B
:1046A0000BE03B68082B04D17B68022283F844208E
:1046B00003E07B68022283F845203B680C2B41D83D
:1046C00001A252F823F000BFFD460008454700084C
:1046D00045470008454700080F47000845470008C0
:1046E000454700084547000821470008454700089E
:1046F0004547000845470008334700087B681B68AA
:10470000DA687B681B6842F00202DA601DE07B68B1
:104710001B68DA687B681B6842F00402DA6014E008
:104720007B681B68DA687B681B6842F00802DA6005
:104730000BE07B681B68DA687B681B6842F010023C
:10474000DA6002E00123FB7300BFFB7B002B3ED14C
:104750007B681B6801223968184600F061FF7B689E
:104760001B681D4A934218D07B681B68B3F1804FC9
:1047700013D07B681B68194A93420ED07B681B6874
:10478000174A934209D07B681B68164A934204D0AB
:104790007B681B68144A934211D17B681B689B6835
:1047A00003F00703BB60BB68062B10D07B681B6857
:1047B0001A687B681B6842F001021A6007E07B6898
:1047C0001B681A687B681B6842F001021A60FB7B59
:1047D00018461037BD4680BD00000140000400406F
:1047E00000080040000C00400040014080B582B04D
:1047F00000AF78607B681B681B6903F00203022B23
:1048000022D17B681B68DB6803F00203022B1BD1FB
:104810007B681B686FF002021A617B6801221A77BD
:104820007B681B689B6903F00303002B03D0786847
:1048300000F013FB05E0786800F005FB786800F0F5
:1048400016FB7B6800221A777B681B681B6903F0E4
:104850000403042B22D17B681B68DB6803F004038C
:10486000042B1BD17B681B686FF004021A617B6804
:1048700002221A777B681B689B6903F44073002B44
:1048800003D0786800F0E9FA05E0786800F0DBFA18
:10489000786800F0ECFA7B6800221A777B681B6866
:1048A0001B6903F00803082B22D17B681B68DB68B7
:1048B00003F00803082B1BD17B681B686FF008020C
:1048C0001A617B6804221A777B681B68DB6903F036
:1048D0000303002B03D0786800F0BFFA05E0786886
:1048E00000F0B1FA786800F0C2FA7B6800221A770B
:1048F0007B681B681B6903F01003102B22D17B68B7
:104900001B68DB6803F01003102B1BD17B681B684E
:104910006FF010021A617B6808221A777B681B68A7
:10492000DB6903F44073002B03D0786800F095FA3C
:1049300005E0786800F087FA786800F098FA7B68FC
:1049400000221A777B681B681B6903F00103012BA7
:104950000ED17B681B68DB6803F00103012B07D1D4
:104960007B681B686FF001021A617868FDF798FB9D
:104970007B681B681B6903F08003802B0ED17B686A
:104980001B68DB6803F08003802B07D17B681B6802
:104990006FF080021A61786800F032FF7B681B6854
:1049A0001B6903F04003402B0ED17B681B68DB685A
:1049B00003F04003402B07D17B681B686FF0400277
:1049C0001A61786800F05DFA7B681B681B6903F068
:1049D0002003202B0ED17B681B68DB6803F02003CB
:1049E000202B07D17B681B686FF020021A61786862
:1049F00000F0FCFE00BF0837BD4680BD80B586B024
:104A000000AFF860B9607A600023FB75FB6893F82B
:104A10003C30012B01D1022388E0FB68012283F89E
:104A20003C207B68002B1BD1FB681868BB681968A9
:104A3000BB685A68BB68DB6800F03AFCFB681B681F
:104A40009A69FB681B6822F00C029A61FB681B687C
:104A50009969BB689A68FB681B680A439A6160E0C1
:104A60007B68042B1CD1FB681868BB681968BB689D
:104A70005A68BB68DB6800F0B2FCFB681B689A6987
:104A8000FB681B6822F440629A61FB681B689969A5
:104A9000BB689B681A02FB681B680A439A6140E086
:104AA0007B68082B1BD1FB681868BB681968BB685A
:104AB0005A68BB68DB6800F0FFFCFB681B68DA69BA
:104AC000FB681B6822F00C02DA61FB681B68D9697D
:104AD000BB689A68FB681B680A43DA6121E07B685F
:104AE0000C2B1CD1FB681868BB681968BB685A6836
:104AF000BB68DB6800F01CFDFB681B68DA69FB68BB
:104B00001B6822F44062DA61FB681B68D969BB68E4
:104B10009B681A02FB681B680A43DA6101E0012303
:104B2000FB75FB68002283F83C20FB7D1846183794
:104B3000BD4680BD80B586B000AFF860B9607A60D0
:104B40000023FB75FB6893F83C30012B01D1022355
:104B5000AEE0FB68012283F83C207B680C2B00F25E
:104B60009F8001A252F823F09D4B0008A14C000841
:104B7000A14C0008A14C0008DD4B0008A14C000826
:104B8000A14C0008A14C00081F4C0008A14C0008D3
:104B9000A14C0008A14C00085F4C0008FB681B6892
:104BA000B968184600F0F8F9FB681B689A69FB6859
:104BB0001B6842F008029A61FB681B689A69FB68EF
:104BC0001B6822F004029A61FB681B689969BB6844
:104BD0001A69FB681B680A439A6164E0FB681B68FA
:104BE000B968184600F03EFAFB681B689A69FB68D2
:104BF0001B6842F400629A61FB681B689A69FB6853
:104C00001B6822F480629A61FB681B689969BB6823
:104C10001B691A02FB681B680A439A6143E0FB6840
:104C20001B68B968184600F089FAFB681B68DA69E6
:104C3000FB681B6842F00802DA61FB681B68DA69EE
:104C4000FB681B6822F00402DA61FB681B68D96903
:104C5000BB681A69FB681B680A43DA6123E0FB68DA
:104C60001B68B968184600F0D3FAFB681B68DA695C
:104C7000FB681B6842F40062DA61FB681B68DA6952
:104C8000FB681B6822F48062DA61FB681B68D969E3
:104C9000BB681B691A02FB681B680A43DA6102E001
:104CA0000123FB7500BFFB68002283F83C20FB7DDD
:104CB00018461837BD4680BD80B584B000AF786017
:104CC00039600023FB737B6893F83C30012B01D1E2
:104CD0000223B4E07B68012283F83C207B68022237
:104CE00083F83D207B681B689B68BB60BB6823F032
:104CF0007703BB60BB6823F47F43BB607B681B68A2
:104D0000BA689A603B681B68B3F5005F3ED0B3F5A4
:104D1000005F00F28780B3F5805F00F08680B3F516
:104D2000805F7FD8702B1AD0702B7BD8602B50D02F
:104D3000602B77D8502B3CD0502B73D8402B58D0B9
:104D4000402B6FD8302B64D0302B6BD8202B60D009
:104D5000202B67D8002B5CD0102B5AD062E07B68E8
:104D600018683B6899683B685A683B68DB6800F0E4
:104D700037FC7B681B689B68BB60BB6843F07703AC
:104D8000BB607B681B68BA689A604FE07B681868F4
:104D90003B6899683B685A683B68DB6800F020FC18
:104DA0007B681B689A687B681B6842F480429A6043
:104DB0003CE07B6818683B6859683B68DB681A46CA
:104DC00000F0DEFA7B681B685021184600F0EDFB0E
:104DD0002CE07B6818683B6859683B68DB681A46BA
:104DE00000F03AFB7B681B686021184600F0DDFB91
:104DF0001CE07B6818683B6859683B68DB681A46AA
:104E000000F0BEFA7B681B684021184600F0CDFB1D
:104E10000CE07B681A683B681B681946104600F076
:104E2000C4FB03E00123FB7300E000BF7B680122A9
:104E300083F83D207B68002283F83C20FB7B1846EA
:104E40001037BD4680BD80B483B000AF786000BF2E
:104E50000C37BD465DF8047B704780B483B000AF6B
:104E6000786000BF0C37BD465DF8047B704780B4A6
:104E700083B000AF786000BF0C37BD465DF8047B9F
:104E8000704780B483B000AF786000BF0C37BD4678
:104E90005DF8047B7047000080B485B000AF786097
:104EA00039607B681B68FB607B68344A93420FD093
:104EB0007B68B3F1804F0BD07B68314A934207D0B7
:104EC0007B68304A934203D07B682F4A934208D1D3
:104ED000FB6823F07003FB603B685B68FA68134370
:104EE000FB607B68254A93421BD07B68B3F1804FFF
:104EF00017D07B68224A934213D07B68214A9342A1
:104F00000FD07B68204A93420BD07B681F4A9342A4
:104F100007D07B681E4A934203D07B681D4A9342A8
:104F200008D1FB6823F44073FB603B68DB68FA68D8
:104F30001343FB60FB6823F080023B685B6913430B
:104F4000FB607B68FA681A603B689A687B68DA6283
:104F50003B681A687B689A627B68084A934203D16F
:104F60003B681A697B681A637B6801225A6100BF3B
:104F70001437BD465DF8047B704700BF0000014058
:104F80000004004000080040000C004000400140C8
:104F9000004401400048014080B487B000AF786011
:104FA00039607B681B6A23F001027B681A627B68A8
:104FB0001B6A7B617B685B683B617B689B69FB600C
:104FC000FB6823F07003FB60FB6823F00303FB60C6
:104FD0003B681B68FA681343FB607B6923F002039C
:104FE0007B613B689B687A6913437B617B681C4AE1
:104FF00093420CD17B6923F008037B613B68DB683B
:105000007A6913437B617B6923F004037B617B68CE
:10501000134A934211D13B6923F480733B613B698E
:1050200023F400733B613B685B693A6913433B615E
:105030003B689B693A6913433B617B683A695A60F4
:105040007B68FA689A613B685A687B685A637B6838
:105050007A691A6200BF1C37BD465DF8047B704751
:105060000000014080B487B000AF786039607B6891
:105070001B6A23F010027B681A627B681B6A7B61E3
:105080007B685B683B617B689B69FB60FB6823F422
:10509000E043FB60FB6823F44073FB603B681B68E4
:1050A0001B02FA681343FB607B6923F020037B61DA
:1050B0003B689B681B017A6913437B617B681E4ACE
:1050C00093420DD17B6923F080037B613B68DB68F1
:1050D0001B017A6913437B617B6923F040037B6189
:1050E0007B68154A934213D13B6923F480633B618B
:1050F0003B6923F400633B613B685B699B003A6951
:1051000013433B613B689B699B003A6913433B61D6
:105110007B683A695A607B68FA689A613B685A68AA
:105120007B689A637B687A691A6200BF1C37BD4648
:105130005DF8047B704700BF0000014080B487B079
:1051400000AF786039607B681B6A23F480727B68EB
:105150001A627B681B6A7B617B685B683B617B686A
:10516000DB69FB60FB6823F07003FB60FB6823F0E6
:105170000303FB603B681B68FA681343FB607B69B1
:1051800023F400737B613B689B681B027A691343BD
:105190007B617B681D4A93420DD17B6923F40063D8
:1051A0007B613B68DB681B027A6913437B617B6927
:1051B00023F480637B617B68144A934213D13B697B
:1051C00023F480533B613B6923F400533B613B680C
:1051D0005B691B013A6913433B613B689B691B0197
:1051E0003A6913433B617B683A695A607B68FA68A5
:1051F000DA613B685A687B68DA637B687A691A62AD
:1052000000BF1C37BD465DF8047B704700000140BD
:1052100080B487B000AF786039607B681B6A23F484
:1052200080527B681A627B681B6A3B617B685B68A3
:105230007B617B68DB69FB60FB6823F4E043FB6018
:10524000FB6823F44073FB603B681B681B02FA6831
:105250001343FB603B6923F400533B613B689B684D
:105260001B033A6913433B617B68104A934209D19F
:105270007B6923F480437B613B685B699B017A69AE
:1052800013437B617B687A695A607B68FA68DA61EC
:105290003B685A687B681A647B683A691A6200BF87
:1052A0001C37BD465DF8047B704700BF000001401D
:1052B00080B487B000AFF860B9607A603B60FB688B
:1052C0001B6A23F00102FB681A62FB689B697B6121
:1052D000FB681B6A3B61FB68244A934213D0FB685E
:1052E000B3F1804F0FD0FB68214A93420BD0FB688B
:1052F000204A934207D0FB681F4A934203D0FB68C1
:105300001E4A934201D1012300E00023002B08D064
:105310007B6923F003037B617A697B6813437B61BC
:1053200003E07B6943F001037B617B6923F0F003B9
:105330007B613B681B01DBB27A6913437B613B698C
:1053400023F00A033B61BB6803F00A033A69134385
:105350003B61FB687A699A61FB683A691A6200BF2F
:105360001C37BD465DF8047B704700BF000001405C
:105370000004004000080040000C004000400140D4
:1053800080B487B000AFF860B9607A60FB681B6AD0
:105390007B61FB681B6A23F00102FB681A62FB68F1
:1053A0009B693B613B6923F0F0033B617B681B0118
:1053B0003A6913433B617B6923F00A037B617A6995
:1053C000BB6813437B61FB683A699A61FB687A6941
:1053D0001A6200BF1C37BD465DF8047B704780B47D
:1053E00087B000AFF860B9607A603B60FB681B6A09
:1053F00023F01002FB681A62FB689B697B61FB6803
:105400001B6A3B617B6923F440737B617B681B02F1
:105410007A6913437B617B6923F470437B613B684A
:105420001B039BB27A6913437B613B6923F0A003A2
:105430003B61BB681B0103F0A0033A6913433B6166
:10544000FB687A699A61FB683A691A6200BF1C3787
:10545000BD465DF8047B704780B487B000AFF8604C
:10546000B9607A60FB681B6A23F01002FB681A625D
:10547000FB689B697B61FB681B6A3B617B6923F46A
:1054800070437B617B681B037A6913437B613B69D3
:1054900023F0A0033B61BB681B013A6913433B61E6
:1054A000FB687A699A61FB683A691A6200BF1C3727
:1054B000BD465DF8047B704780B487B000AFF860EC
:1054C000B9607A603B60FB681B6A23F48072FB68FA
:1054D0001A62FB68DB697B61FB681B6A3B617B6965
:1054E00023F003037B617A697B6813437B617B69EB
:1054F00023F0F0037B613B681B01DBB27A69134345
:105500007B613B6923F420633B61BB681B0203F4AE
:1055100020633A6913433B61FB687A69DA61FB688F
:105520003A691A6200BF1C37BD465DF8047B7047BC
:1055300080B487B000AFF860B9607A603B60FB6808
:105540001B6A23F48052FB681A62FB68DB697B618B
:10555000FB681B6A3B617B6923F440737B617B685A
:105560001B027A6913437B617B6923F470437B617F
:105570003B681B039BB27A6913437B613B6923F44D
:1055800020433B61BB681B0303F420433A69134388
:105590003B61FB687A69DA61FB683A691A6200BFAD
:1055A0001C37BD465DF8047B704780B485B000AF02
:1055B000786039607B689B68FB60FB6823F0700350
:1055C000FB603A68FB68134343F00703FB607B68AA
:1055D000FA689A6000BF1437BD465DF8047B7047D7
:1055E00080B487B000AFF860B9607A603B60FB6858
:1055F0009B687B617B6923F47F437B613B681A0274
:105600007B681A43BB6813437A6913437B61FB6869
:105610007A699A6000BF1C37BD465DF8047B70470D
:1056200080B487B000AFF860B9607A60BB6803F0FF
:105630001F03012202FA03F37B61FB681A6A7B698C
:10564000DB431A40FB681A62FB681A6ABB6803F006
:105650001F03796801FA03F31A43FB681A6200BF5B
:105660001C37BD465DF8047B7047000080B485B0F0
:1056700000AF786039607B6893F83C30012B01D132
:10568000022350E07B68012283F83C207B680222E1
:1056900083F83D207B681B685B68FB607B681B6848
:1056A0009B68BB60FB6823F07003FB603B681B6872
:1056B000FA681343FB607B681B68FA685A607B6872
:1056C0001B681C4A934218D07B681B68B3F1804F5B
:1056D00013D07B681B68184A93420ED07B681B6806
:1056E000164A934209D07B681B68154A934204D03E
:1056F0007B681B68134A93420CD1BB6823F080037C
:10570000BB603B685B68BA681343BB607B681B681F
:10571000BA689A607B68012283F83D207B6800228A
:1057200083F83C20002318461437BD465DF8047BFF
:10573000704700BF00000140000400400008004026
:10574000000C00400040014080B485B000AF78609C
:1057500039600023FB607B6893F83C30012B01D15A
:1057600002233DE07B68012283F83C20FB6823F0A4
:10577000FF023B68DB681343FB60FB6823F4407265
:105780003B689B681343FB60FB6823F480623B68C3
:105790005B681343FB60FB6823F400623B681B6893
:1057A0001343FB60FB6823F480523B681B6913437F
:1057B000FB60FB6823F400523B685B691343FB60AA
:1057C000FB6823F480423B68DB691343FB607B6822
:1057D0001B68FA685A647B68002283F83C20002327
:1057E00018461437BD465DF8047B704780B483B01B
:1057F00000AF786000BF0C37BD465DF8047B704792
:1058000080B483B000AF786000BF0C37BD465DF850
:10581000047B704730B5002285B00C460546002356
:1058200051EC100B8DED020BFBF770F99DED020BA7
:10583000224618B12D2302F8013B013D0023064802
:10584000009329466723006800F0B2F8002814BFCF
:105850002046002005B030BD1C000020014B186818
:10586000704700BF1C00002070B50D4D0D4C641B2F
:10587000A4100026A64209D10B4D0C4C02F09CFB53
:10588000641BA4100026A64205D170BD55F8043B48
:1058900098470136EEE755F8043B98470136F2E7A2
:1058A000D8820008D8820008D8820008DC8200086C
:1058B00002440346934200D1704703F8011BF9E705
:1058C000F0B587B043EC102B0C9C9DF834600E9D16
:1058D00004AB019303AB0093621C05AB0F4602219E
:1058E00000F0CAFF059A42F20F739A4205D10146B1
:1058F000384600F00DFF07B0F0BD3B46017803F8D5
:10590000011B002CC8BF01252E2110F8017F0FB10B
:10591000002C37DC672E46D0472E46D02E21302073
:10592000002C38DC511E0029B8BFC2F10102184614
:105930000591ACBF2B22059200F8026BA8BF5A70EC
:10594000059ABCBF2D215970632A0BDD642192FB9F
:10595000F1F101F13004D81C9C706FF0630303FB7C
:1059600001220592059B0A2293FBF2F202F130011B
:1059700001706FF0090101FB0233303343700023E3
:105980008370B8E70DB103F8011B057803F8015BDC
:10599000013C0025B9E70DB103F8011B03F8010B29
:1059A000013C0025BCE76526BCE74526BAE70000B8
:1059B0002DE9F04755EC104B88B0814688461646D5
:1059C0009A4610EE100A002200232946109FFBF78A
:1059D0009DF810B105F100431D460022002320462A
:1059E0002946FBF789F838B13023337000237370F0
:1059F000304608B0BDE8F0874BA3D3E9002320462A
:105A00002946FBF78DF858B108F1FF310091CDE937
:105A100001A722462B4631464846FFF751FFE7E7EC
:105A2000404600F009FC224651EC100B2B46FBF7D8
:105A300077F80028E8D107AB019306AB0093424604
:105A400005AB45EC104B0221484600F015FF059AC6
:105A500042F20F739A420ED03346B044054610F816
:105A6000011B059CA8EB030209B1002C08DC0021F6
:105A70004FF0300C0DE00146304600F049FEB7E72C
:105A8000013C03F8011B0594E8E703F801CB013A58
:105A90000121002C20462ADC01B105940FB9297898
:105AA00011B3B34204BF302103F8011B2E2119703A
:105AB000059918460024A1EB030C4FF0300E1CEBA7
:105AC000000F1CD40029C1F10000C8BF002000F164
:105AD000010C6344014404B10591691E11F8010FE2
